{
  "_format": "hh-sol-artifact-1",
  "contractName": "SimpleStorage",
  "sourceName": "contracts/SimpleStorage.sol",
  "abi": [
    {
      "inputs": [
        {
          "internalType": "string",
          "name": "_name",
          "type": "string"
        },
        {
          "internalType": "uint256",
          "name": "_favoriteNumber",
          "type": "uint256"
        }
      ],
      "name": "addPerson",
      "outputs": [],
      "stateMutability": "nonpayable",
      "type": "function"
    },
    {
      "inputs": [
        {
          "internalType": "string",
          "name": "_name",
          "type": "string"
        }
      ],
      "name": "getPerson",
      "outputs": [
        {
          "internalType": "uint256",
          "name": "",
          "type": "uint256"
        }
      ],
      "stateMutability": "view",
      "type": "function"
    },
    {
      "inputs": [
        {
          "internalType": "string",
          "name": "",
          "type": "string"
        }
      ],
      "name": "nameToFavoriteNumber",
      "outputs": [
        {
          "internalType": "uint256",
          "name": "",
          "type": "uint256"
        }
      ],
      "stateMutability": "view",
      "type": "function"
    },
    {
      "inputs": [
        {
          "internalType": "uint256",
          "name": "",
          "type": "uint256"
        }
      ],
      "name": "people",
      "outputs": [
        {
          "internalType": "uint256",
          "name": "favoriteNumber",
          "type": "uint256"
        },
        {
          "internalType": "string",
          "name": "name",
          "type": "string"
        }
      ],
      "stateMutability": "view",
      "type": "function"
    },
    {
      "inputs": [],
      "name": "retrieve",
      "outputs": [
        {
          "internalType": "uint256",
          "name": "",
          "type": "uint256"
        }
      ],
      "stateMutability": "view",
      "type": "function"
    },
    {
      "inputs": [
        {
          "internalType": "uint256",
          "name": "_favoriteNumber",
          "type": "uint256"
        }
      ],
      "name": "store",
      "outputs": [],
      "stateMutability": "nonpayable",
      "type": "function"
    }
  ],
  "bytecode": "0x608060405234801561001057600080fd5b506107d4806100206000396000f3fe608060405234801561001057600080fd5b50600436106100625760003560e01c80632e64cec1146100675780636057361d146100855780636f760f41146100a15780638bab8dd5146100bd5780639e7a13ad146100ed578063e907247c1461011e575b600080fd5b61006f61014e565b60405161007c91906103bf565b60405180910390f35b61009f600480360381019061009a919061041a565b610157565b005b6100bb60048036038101906100b6919061058d565b610161565b005b6100d760048036038101906100d291906105e9565b6101f1565b6040516100e491906103bf565b60405180910390f35b6101076004803603810190610102919061041a565b61021f565b6040516101159291906106ba565b60405180910390f35b610138600480360381019061013391906105e9565b6102db565b60405161014591906103bf565b60405180910390f35b60008054905090565b8060008190555050565b600160405180604001604052808381526020018481525090806001815401808255809150506001900390600052602060002090600202016000909190919091506000820151816000015560208201518160010190805190602001906101c7929190610303565b505050806002836040516101db9190610726565b9081526020016040518091039020819055505050565b6002818051602081018201805184825260208301602085012081835280955050505050506000915090505481565b6001818154811061022f57600080fd5b90600052602060002090600202016000915090508060000154908060010180546102589061076c565b80601f01602080910402602001604051908101604052809291908181526020018280546102849061076c565b80156102d15780601f106102a6576101008083540402835291602001916102d1565b820191906000526020600020905b8154815290600101906020018083116102b457829003601f168201915b5050505050905082565b60006002826040516102ed9190610726565b9081526020016040518091039020549050919050565b82805461030f9061076c565b90600052602060002090601f0160209004810192826103315760008555610378565b82601f1061034a57805160ff1916838001178555610378565b82800160010185558215610378579182015b8281111561037757825182559160200191906001019061035c565b5b5090506103859190610389565b5090565b5b808211156103a257600081600090555060010161038a565b5090565b6000819050919050565b6103b9816103a6565b82525050565b60006020820190506103d460008301846103b0565b92915050565b6000604051905090565b600080fd5b600080fd5b6103f7816103a6565b811461040257600080fd5b50565b600081359050610414816103ee565b92915050565b6000602082840312156104305761042f6103e4565b5b600061043e84828501610405565b91505092915050565b600080fd5b600080fd5b6000601f19601f8301169050919050565b7f4e487b7100000000000000000000000000000000000000000000000000000000600052604160045260246000fd5b61049a82610451565b810181811067ffffffffffffffff821117156104b9576104b8610462565b5b80604052505050565b60006104cc6103da565b90506104d88282610491565b919050565b600067ffffffffffffffff8211156104f8576104f7610462565b5b61050182610451565b9050602081019050919050565b82818337600083830152505050565b600061053061052b846104dd565b6104c2565b90508281526020810184848401111561054c5761054b61044c565b5b61055784828561050e565b509392505050565b600082601f83011261057457610573610447565b5b813561058484826020860161051d565b91505092915050565b600080604083850312156105a4576105a36103e4565b5b600083013567ffffffffffffffff8111156105c2576105c16103e9565b5b6105ce8582860161055f565b92505060206105df85828601610405565b9150509250929050565b6000602082840312156105ff576105fe6103e4565b5b600082013567ffffffffffffffff81111561061d5761061c6103e9565b5b6106298482850161055f565b91505092915050565b600081519050919050565b600082825260208201905092915050565b60005b8381101561066c578082015181840152602081019050610651565b8381111561067b576000848401525b50505050565b600061068c82610632565b610696818561063d565b93506106a681856020860161064e565b6106af81610451565b840191505092915050565b60006040820190506106cf60008301856103b0565b81810360208301526106e18184610681565b90509392505050565b600081905092915050565b600061070082610632565b61070a81856106ea565b935061071a81856020860161064e565b80840191505092915050565b600061073282846106f5565b915081905092915050565b7f4e487b7100000000000000000000000000000000000000000000000000000000600052602260045260246000fd5b6000600282049050600182168061078457607f821691505b602082108114156107985761079761073d565b5b5091905056fea264697066735822122036d76124b68b74d357215c46bd3fe7bc330ea852a45d31cebbfdce77ec5e7ae064736f6c63430008080033",
  "linkReferences": {},
  "deployedLinkReferences": {}
}