{
  "_format": "hh-sol-artifact-1",
  "contractName": "SimpleStorage",
  "sourceName": "contracts/SimpleStorage.sol",
  "abi": [
    {
      "inputs": [
        {
          "internalType": "string",
          "name": "_name",
          "type": "string"
        },
        {
          "internalType": "uint256",
          "name": "_favoriteNumber",
          "type": "uint256"
        }
      ],
      "name": "addPerson",
      "outputs": [],
      "stateMutability": "nonpayable",
      "type": "function"
    },
    {
      "inputs": [
        {
          "internalType": "string",
          "name": "_name",
          "type": "string"
        }
      ],
      "name": "getPerson",
      "outputs": [
        {
          "internalType": "uint256",
          "name": "",
          "type": "uint256"
        }
      ],
      "stateMutability": "view",
      "type": "function"
    },
    {
      "inputs": [
        {
          "internalType": "string",
          "name": "",
          "type": "string"
        }
      ],
      "name": "nameToFavoriteNumber",
      "outputs": [
        {
          "internalType": "uint256",
          "name": "",
          "type": "uint256"
        }
      ],
      "stateMutability": "view",
      "type": "function"
    },
    {
      "inputs": [
        {
          "internalType": "uint256",
          "name": "",
          "type": "uint256"
        }
      ],
      "name": "people",
      "outputs": [
        {
          "internalType": "uint256",
          "name": "favoriteNumber",
          "type": "uint256"
        },
        {
          "internalType": "string",
          "name": "name",
          "type": "string"
        }
      ],
      "stateMutability": "view",
      "type": "function"
    },
    {
      "inputs": [],
      "name": "retrieve",
      "outputs": [
        {
          "internalType": "uint256",
          "name": "",
          "type": "uint256"
        }
      ],
      "stateMutability": "view",
      "type": "function"
    },
    {
      "inputs": [
        {
          "internalType": "uint256",
          "name": "_favoriteNumber",
          "type": "uint256"
        }
      ],
      "name": "store",
      "outputs": [],
      "stateMutability": "nonpayable",
      "type": "function"
    }
  ],
  "bytecode": "0x608060405234801561001057600080fd5b506108c8806100206000396000f3fe608060405234801561001057600080fd5b50600436106100625760003560e01c80632e64cec1146100675780636057361d146100855780636f760f41146100a15780638bab8dd5146100bd5780639e7a13ad146100ed578063e907247c1461011e575b600080fd5b61006f61014e565b60405161007c91906104b3565b60405180910390f35b61009f600480360381019061009a919061050e565b610194565b005b6100bb60048036038101906100b69190610681565b6101c6565b005b6100d760048036038101906100d291906106dd565b6102a6565b6040516100e491906104b3565b60405180910390f35b6101076004803603810190610102919061050e565b6102d4565b6040516101159291906107ae565b60405180910390f35b610138600480360381019061013391906106dd565b610390565b60405161014591906104b3565b60405180910390f35b600061016467a1dcac4dcdaef91e60c01b6103f4565b610178677eedc8813289b08c60c01b6103f4565b61018c675ae3d2eb613ef41260c01b6103f4565b600054905090565b6101a8676432124be7f5a83060c01b6103f4565b6101bc677268c5365035745660c01b6103f4565b8060008190555050565b6101da6739f3a81ce23ee74060c01b6103f4565b6101ee67311d98f748fc299b60c01b6103f4565b610202673d401ebe673ef05f60c01b6103f4565b600160405180604001604052808381526020018481525090806001815401808255809150506001900390600052602060002090600202016000909190919091506000820151816000015560208201518160010190805190602001906102689291906103f7565b50505061027f67d58802731a99590c60c01b6103f4565b80600283604051610290919061081a565b9081526020016040518091039020819055505050565b6002818051602081018201805184825260208301602085012081835280955050505050506000915090505481565b600181815481106102e457600080fd5b906000526020600020906002020160009150905080600001549080600101805461030d90610860565b80601f016020809104026020016040519081016040528092919081815260200182805461033990610860565b80156103865780601f1061035b57610100808354040283529160200191610386565b820191906000526020600020905b81548152906001019060200180831161036957829003601f168201915b5050505050905082565b60006103a6673aad823361fd942660c01b6103f4565b6103ba67b3f1ff3fea9b509060c01b6103f4565b6103ce679d022ca0c0e1007f60c01b6103f4565b6002826040516103de919061081a565b9081526020016040518091039020549050919050565b50565b82805461040390610860565b90600052602060002090601f016020900481019282610425576000855561046c565b82601f1061043e57805160ff191683800117855561046c565b8280016001018555821561046c579182015b8281111561046b578251825591602001919060010190610450565b5b509050610479919061047d565b5090565b5b8082111561049657600081600090555060010161047e565b5090565b6000819050919050565b6104ad8161049a565b82525050565b60006020820190506104c860008301846104a4565b92915050565b6000604051905090565b600080fd5b600080fd5b6104eb8161049a565b81146104f657600080fd5b50565b600081359050610508816104e2565b92915050565b600060208284031215610524576105236104d8565b5b6000610532848285016104f9565b91505092915050565b600080fd5b600080fd5b6000601f19601f8301169050919050565b7f4e487b7100000000000000000000000000000000000000000000000000000000600052604160045260246000fd5b61058e82610545565b810181811067ffffffffffffffff821117156105ad576105ac610556565b5b80604052505050565b60006105c06104ce565b90506105cc8282610585565b919050565b600067ffffffffffffffff8211156105ec576105eb610556565b5b6105f582610545565b9050602081019050919050565b82818337600083830152505050565b600061062461061f846105d1565b6105b6565b9050828152602081018484840111156106405761063f610540565b5b61064b848285610602565b509392505050565b600082601f8301126106685761066761053b565b5b8135610678848260208601610611565b91505092915050565b60008060408385031215610698576106976104d8565b5b600083013567ffffffffffffffff8111156106b6576106b56104dd565b5b6106c285828601610653565b92505060206106d3858286016104f9565b9150509250929050565b6000602082840312156106f3576106f26104d8565b5b600082013567ffffffffffffffff811115610711576107106104dd565b5b61071d84828501610653565b91505092915050565b600081519050919050565b600082825260208201905092915050565b60005b83811015610760578082015181840152602081019050610745565b8381111561076f576000848401525b50505050565b600061078082610726565b61078a8185610731565b935061079a818560208601610742565b6107a381610545565b840191505092915050565b60006040820190506107c360008301856104a4565b81810360208301526107d58184610775565b90509392505050565b600081905092915050565b60006107f482610726565b6107fe81856107de565b935061080e818560208601610742565b80840191505092915050565b600061082682846107e9565b915081905092915050565b7f4e487b7100000000000000000000000000000000000000000000000000000000600052602260045260246000fd5b6000600282049050600182168061087857607f821691505b6020821081141561088c5761088b610831565b5b5091905056fea264697066735822122039290208e38e193fb891b9d5ad95989453d33bf250538ef3801ec2de417b067264736f6c63430008080033",
  "linkReferences": {},
  "deployedLinkReferences": {}
}